:020000040800F2
:10000000280900204D020008550200085702000888
:10001000590200085B0200085D02000800000000B1
:100020000000000000000000000000005F02000867
:100030006102000800000000630200086502000879
:1000400067020008670200086702000867020008EC
:1000500067020008670200086702000867020008DC
:1000600067020008670200086702000867020008CC
:1000700067020008670200086702000867020008BC
:1000800041030008650300086702000867020008D2
:10009000670200086702000867020008610500089F
:1000A000670200086702000867020008670200088C
:1000B000670200082D1300086702000867020008A5
:1000C000670200086702000867020008670200086C
:1000D0006702000867020008FD18000867020008B0
:1000E000D1040008670200086702000867020008E0
:1000F000670200086702000867020008670200083C
:10010000670200086702000867020008670200082B
:10011000670200086702000867020008670200081B
:10012000670200086702000867020008670200080B
:1001300067020008670200086702000867020008FB
:1001400067020008670200086702000867020008EB
:1001500067020008670200086702000867020008DB
:1001600067020008670200086702000867020008CB
:10017000670200086702000867020008000000002C
:1001800067020008670200086702000867020008AB
:10019000670200086702000867020008670200089B
:1001A00000000000000000006702000800F002F8F4
:1001B00000F03CF80AA090E8000C82448344AAF1C5
:1001C0000107DA4501D100F031F8AFF2090EBAE8C3
:1001D0000F0013F0010F18BFFB1A43F0010318477B
:1001E0006C1900008C190000103A24BF78C878C13F
:1001F000FAD8520724BF30C830C144BF04680C602D
:10020000704700000023002400250026103A28BF74
:1002100078C1FBD8520728BF30C148BF0B60704778
:100220001FB501F08DFC1FBD10B510BD00F031F8F9
:100230001146FFF7F5FF01F05BFC00F04FF803B447
:10024000FFF7F2FF03BC00F053F8000009488047B5
:1002500009480047FEE7FEE7FEE7FEE7FEE7FEE7A8
:10026000FEE7FEE7FEE7FEE704480549054A064BC0
:1002700070470000C5120008AD01000828030020E7
:100280002809002028050020280500207047704715
:100290007047754600F028F8AE460500694653469B
:1002A00020F00700854618B020B5FFF7DDFFBDE858
:1002B00020404FF000064FF000074FF000084FF0CD
:1002C000000B21F00701AC46ACE8C009ACE8C0095E
:1002D000ACE8C009ACE8C0098D4670470446AFF3EE
:1002E00000802046FFF7ABFF00487047C4020020A3
:1002F00001491820ABBEFEE726000200704700004F
:100300001CB50121082000F033FD01208DF8040008
:1003100000208DF806004FF48060009001208DF8D9
:10032000070003208DF805006946044800F030FA04
:100330004FF48061014800F098FA1CBD000C0240A7
:1003400010B50649064800F047F8012805D10349D1
:10035000034800F01BF801F0F7F910BD00880020F9
:10036000A060024010B50749074800F035F80128A1
:1003700007D10449044800F009F80021024800F0C0
:100380001FF810BD00802020A06002400246094BEB
:100390009A4201D2084801E00648103801F00053A3
:1003A0001BB1064B0B40C36002E0044B0B40836063
:1003B0007047000010640240006002407D0F7D0F16
:1003C00021B1026842F00102026003E0026822F0FB
:1003D000010202607047000070B502460020002450
:1003E0000025124EB24201D2114B01E00F4B103BDF
:1003F000104E0E4036B11E2606EAD124166806EAD3
:10040000040502E0566906F0800501F000560EB1C1
:100410005C6800E01C68084E344004EA010616B12E
:100420000DB1012000E0002070BD0000106402400A
:10043000006002403C0F3C0F7D0F7D0F10B501F0B6
:1004400080034BB122B1436943F08003436103E071
:10045000436923F08003436180290BD02AB10368EC
:1004600001F01E042343036004E0036801F01E044E
:10047000A343036010BD000010B500220268134BB7
:100480001A40CC680B6823434C6923438C6923438F
:10049000CC6923430C6A23434C6A23438C6A23436D
:1004A0004C6B23438C6B23431A430260426922F056
:1004B0000702D1E90B3423431A4342610B694360BD
:1004C0004B6883608B68C36010BD00003F801CF0E8
:1004D00010B54FF4806000F005F9012833D1800297
:1004E00000F0FAF818480079D0B1002016490871D8
:1004F00016480068164908610846008A1549098AA5
:10050000401A154908811548006840F48060134975
:100510000860081D006820F48060091D086012E072
:10052000012009490871094800680A4908610B4817
:10053000006820F4806009490860081D006840F4E4
:100540008060091D086010BDE4000020240C0040FC
:10055000280200203C02002050020020083C0140FC
:1005600010B5802000F0BEF8012833D1802000F0C3
:10057000B3F853484078D0B10020514948705148F1
:100580000068514948600846808850498988401A67
:100590004F4948804F48006840F080004D4908604E
:1005A000081D006820F08000091D086012E001208D
:1005B00043494870434800684449486045480068DA
:1005C00020F0800043490860081D006840F080006A
:1005D000091D08604FF4807000F084F8012833D1C1
:1005E000000200F079F836488078D0B10020344914
:1005F0008870344800683449886008460089334967
:100600000989401A324988803248006840F4807075
:1006100030490860081D006820F48070091D0860DA
:1006200012E0012026498870264800682749886022
:100630002848006820F4807026490860081D00687A
:1006400040F48070091D08604FF4007000F04AF813
:10065000012833D1400200F03FF81948C078D0B1EA
:1006600000201749C870174800681749C860084635
:10067000808916498989401A1549C880154800683B
:1006800040F4007013490860081D006820F40070F1
:10069000091D086012E001200949C8700948006876
:1006A0000A49C8600B48006820F4007009490860D6
:1006B000081D006840F40070091D086010BD0000AE
:1006C000E4000020240C0040280200203C0200200E
:1006D00050020020083C01400149086070470000BA
:1006E000143C014001460020034A12680A400AB146
:1006F000012000E000207047143C01400021234904
:100700008279002A3AD00A46126803689A430B4657
:100710001A600A1D126803689A430B1D1A60027959
:1007200011440A6803681A430A60184A08321268BA
:1007300003689A43154B08331A601A1D1268036840
:100740009A43124B0C331A604279102A0ED11A1FA9
:10075000126803681A430D4B08331A601A1D126899
:1007600003681A43094B0C331A600DE007494279BC
:1007700011440A6803681A430A6005E002791144CB
:100780000A6803689A430A6070470000003C014011
:10079000F0B50A4600210023002400BF3DE00125FA
:1007A00005FA01F3156805EA03049C4234D1056893
:1007B0004F000326BE40B543056015794E00B54095
:1007C0000668354305601579012D02D01579022D93
:1007D00016D185684F000326BE40B5438560557924
:1007E0004E00B540866835438560456801268E40D9
:1007F000B5434560456896798E40B6B2354345604D
:10080000C5684F000326BE40B543C560D5794E008C
:10081000B540C6683543C560491C1029BFD3F0BD3B
:10082000F0B5002300244D07ED0E02FA05F3CE10BB
:1008300000F1200555F826504E07F70E0F26BE4052
:10084000B543CF1000F1200646F82750CE1000F136
:10085000200555F8265045EA0304CE1000F1200586
:1008600045F82640F0BD4183704701837047000082
:100870001CB50121042000F07BFA0E20009001201D
:100880008DF8040002208DF8050000208DF8060088
:1008900069460448FFF77CFF0E210248FFF7E3FF9B
:1008A0001CBD00000008024010B500F02FF800F059
:1008B00063F800F041F880216B2000F07BF81248CB
:1008C00000F09CFB10216A2000F074F800216C20DD
:1008D00000F070F80321192000F06CF800211A20B4
:1008E00000F068F808211B2000F064F808211C20A3
:1008F00000F060F808211D2000F05CF8802137200E
:1009000000F058F810BD0000C0912100002003E065
:100910000021074A1154401C0E28F9DB002004E096
:100920000021044A22F81010401C0728F8DB704709
:100930005A020020680200201CB50121042000F0AA
:1009400017FA01208DF8040000208DF806004FF4FE
:100950000050009001208DF8070003208DF805005D
:1009600069460448FFF714FF4FF400510148FFF7B0
:100970007CFF1CBD000802401CB50121102000F0C6
:10098000F7F901208DF8040000208DF806001020F2
:10099000009001208DF8070003208DF805006946BE
:1009A0000348FFF7F5FE10210148FFF75EFF1CBD6D
:1009B0000010024070B505460C4610210748FFF7AD
:1009C00052FF284600F07AFB204600F077FB10210A
:1009D0000248FFF74AFF002070BD000000100240EF
:1009E00010B500F035F800F06BF81E2000F086F826
:1009F00045F2F05000F002FBA02000F04BF8134944
:100A00000880A22000F046F810494880A42000F099
:100A100041F80E498880A62000F03CF80B49C880B8
:100A2000A82000F037F809490881AA2000F032F820
:100A300006494881AC2000F02DF804498881AE2099
:100A400000F028F80149C88110BD0000760200209E
:100A5000002000BF03E000210B4A1154401C06286F
:100A6000F9DB002004E00021084A42F82010401C75
:100A70000228F8DB002004E00021054A22F81010CB
:100A8000401C0828F8DB7047EC000020F400002030
:100A90007602002070B5044608210848FFF7E3FEFF
:100AA000204600F02BF8002000F008FB054600204F
:100AB00000F004FB064646EA052070BD0010024027
:100AC0001CB50121102000F053F901208DF804001D
:100AD00000208DF806000820009001208DF8070006
:100AE00003208DF8050069460348FFF751FE0821F1
:100AF0000148FFF7BAFE1CBD0010024010B50446C5
:100B000008210748FFF7AFFE204600F0D7FA64201F
:100B100000F074FA08210248FFF7A7FE10BD00009C
:100B2000001002407047000070B5002100230F2222
:100B3000C4781CB3174C246804F4E064C4F5E06482
:100B4000C4F30721C1F10404E3B20A4144789C4094
:100B5000E1B28478144021430C07210E0E4C057835
:100B60006155047804F01F050124AC4005786D112F
:100B7000AD0005F1E025C5F8004109E0047804F076
:100B80001F050124AC40054D0678761145F8264036
:100B900070BD00000CED00E000E400E080E100E04A
:100BA00002490143024A1160704700000000FA0543
:100BB0000CED00E000B58BB00121084600F0E8F82C
:100BC0000121084600F0D4F802208DF8280000200A
:100BD0008DF82A000F20099001208DF82B000320AA
:100BE0008DF8290009A95E48FFF7D2FD01220021F6
:100BF0005B48FFF715FE012211465948FFF710FE2A
:100C0000012202215648FFF70BFE0122032154481E
:100C1000FFF706FE0020ADF82000ADF81A0041F203
:100C2000883007902D20ADF8180006A9800700F045
:100C3000F7FC6020ADF804000020ADF810000120A2
:100C4000ADF8060047484088039001A94FF0804066
:100C500000F09AFB0821C80600F0D4FB0120ADF893
:100C6000060040488088039001A94FF0804000F0C2
:100C7000D3FB0821C80600F021FC0120ADF80600D6
:100C80003848C088039001A94FF0804000F024FC50
:100C90000821C80600F070FC0120ADF806003148BC
:100CA0000089039001A94FF0804000F06FFC0821FB
:100CB000C80600F0A7FC0121880700F041FB0121D4
:100CC000880700F04CFB0121042000F061F80121AD
:100CD000082000F04DF802208DF8280000208DF843
:100CE0002A004FF48050099001208DF82B0003203A
:100CF0008DF8290009A91C48FFF74AFD02220C21A2
:100D00001948FFF78DFD0020ADF82000ADF81A005E
:100D100041F2883007905A20ADF8180006A9134810
:100D200000F07EFC6020ADF804000020ADF810005B
:100D30000120ADF806000B484089039001A90B483B
:100D400000F022FB0821094800F05CFB0121074864
:100D500000F0F6FA0121054800F001FB0BB000BDE0
:100D600000000240D8000020000C024000080040B3
:100D700029B1064A12680243044B1A6004E0034A90
:100D800012688243014B1A607047000030380240FD
:100D900029B1064A12680243044B1A6004E0034A70
:100DA00012688243014B1A607047000040380240CD
:100DB00029B1064A12680243044B1A6004E0034A50
:100DC00012688243014B1A607047000044380240A9
:100DD000F0B5002100220024022500260223324F14
:100DE0003F6807F00C0121B1042905D0082937D14B
:100DF00005E02E4F076036E02C4F076033E02A4FA6
:100E00003F1F3F68C7F38056274F3F1F3F6807F0DB
:100E10003F036EB1254FB7FBF3F7DFF88CC0ACF1A1
:100E2000040CDCF800C0CCF3881C07FB0CF40CE0CD
:100E30001E4FB7FBF3F7DFF870C0ACF1040CDCF821
:100E400000C0CCF3881C07FB0CF4174F3F1F3F6812
:100E5000C7F301477F1C7D00B4FBF5F7076002E094
:100E6000124F076000BF00BF0F4F3F6807F0F0014F
:100E700009090F4F7A5C0768D74047600A4F3F68FF
:100E800007F4E051890A0A4F7A5C4768D7408760C7
:100E9000054F3F6807F46041490B054F7A5C47688E
:100EA000D740C760F0BD0000083802400024F400BD
:100EB0000000002000B585B001211020FFF758FF89
:100EC00001218803FFF774FF00208DF810004FF414
:100ED000F060039000208DF8130003A91848FFF775
:100EE00057FC0721042000F03DF90821042000F000
:100EF00039F90921042000F035F90A21042000F015
:100F000031F94FF4F060019001208DF80A000020C3
:100F10008DF8080008208DF8090001A8FFF7EEFB06
:100F200017208DF8000001208DF8030000208DF8B7
:100F300001008DF802006846FFF7F6FD05B000BD20
:100F40000010024000B587B001218803FFF720FFA1
:100F500001210220FFF70CFF02208DF8180000206D
:100F60008DF81A004FF46040059001208DF81B00A9
:100F700003208DF8190005A91B48FFF709FC05227D
:100F80000D211948FFF74CFC05220E211648FFF7EA
:100F900047FC05220F211448FFF742FC2820ADF83A
:100FA0000C000120ADF808000220ADF80600072073
:100FB000ADF810000020ADF80400ADF80000ADF869
:100FC0000E004FF48270ADF802004FF40070ADF8DF
:100FD0000A006946054800F0A7F80121034800F01F
:100FE00089F807B000BD000000040240003800404E
:100FF00010B500F00BF800F033F810BD01B500BFDC
:101000000098411E00910028FAD108BD1CB50121AD
:101010001020FFF7ADFE02208DF8040000208DF8AF
:1010200006006420009001208DF8070003208DF851
:10103000050069460948FFF7ABFB05220221074876
:10104000FFF7EEFB052211460448FFF7E9FB0522F6
:1010500006210248FFF7E4FB1CBD0000001002401F
:1010600000B585B001214803FFF7A2FE3020ADF89E
:101070000C000120ADF808000220ADF806000720A2
:10108000ADF810000020ADF80400ADF80000ADF898
:101090000E004FF48270ADF802004FF40070ADF80E
:1010A0000A006946044800F03FF80121024800F0B8
:1010B00021F805B000BD00000034014010B5044621
:1010C00000BF02210A4800F021F80028F9D021468B
:1010D000074800F027F800BF0121054800F016F886
:1010E0000028F9D0024800F01AF8C0B210BD000084
:1010F0000034014021B1028842F04002028004E045
:1011000002884FF6BF731A400280704702460020E3
:1011100013890B400BB1012000E00020704701460D
:10112000888970478181704710B50022028802F4D7
:1011300041520B884C8823438C882343CC8823431B
:101140000C8923434C8923438C892343CC89234333
:101150001A430280838B4FF2FF74234083830B8AF0
:10116000038210BD30B500228B071C0F0F2303FA3A
:1011700004F20B4B8C1053F824309343084C8D1021
:1011800044F8253023468C1053F824308C07240F64
:1011900000FA04F42343024C8D1044F8253030BD8E
:1011A000083801400CB500200190009041480068CB
:1011B00040F480303F49086000BF3E48006800F4BA
:1011C000003000900198401C0190009818B90198D7
:1011D000B0F5A04FF1D13748006800F4003010B1ED
:1011E0000120009001E0002000900098012860D1CB
:1011F00030484030006840F080502E49403108604F
:101200002D48006840F440402B49086029480830C8
:1012100000682849083108600846006840F400402A
:1012200008600846006840F4A05008602348091F81
:101230000860081F006840F08070091F086000BF48
:101240001C48006800F000700028F9D01A480068B7
:1012500040F480301849086000BF1748406800F427
:1012600080300028F9D01448006840F4003012495A
:10127000086000BF1048406800F400300028F9D032
:1012800040F205700E4908600A480830006820F0F6
:1012900003000849083108600846006840F0020071
:1012A000086000BF03480830006800F00C00082800
:1012B000F8D10CBD0038024000700040105A4007C1
:1012C000003C024010B51548006840F47000134916
:1012D00008601348006840F00100114908600020D0
:1012E0000F49083108600E4800680E4908400C4953
:1012F00008600D48091D0860081F006820F4802060
:10130000091F0860002006490C310860FFF74AFFFA
:101310004FF0006001498039086010BD88ED00E0A1
:1013200000380240FFFFF6FE1030002410B5012106
:10133000024800F011F8FFF7F5FB10BD0004004073
:1013400021B1028842F08002028004E002884FF658
:101350007F731A4002807047CA430282704721B1EE
:10136000028842F00102028004E002884FF6FE7318
:101370001A40028070471AB183890B43838102E0CF
:1013800083898B438381704770B50024002200233A
:10139000058C4FF6FE7635400584028C8388048BDD
:1013A0004FF68F752C40B51E2C400D882C43751EB2
:1013B0002A408D892A434D882A43104DA84202D0E5
:1013C0000F4DA84213D14FF6F7752A40CD892A4315
:1013D0004FF6FB752A408D882A434FF6FF652B4058
:1013E0004FF6FF552B400D8A2B434D8A2B438380AC
:1013F00004838D684563028470BD000000000140D5
:10140000000401400A460021018B4FF6F773194092
:10141000114301837047000070B5002400220023AF
:10142000058C4FF6EF7635400584028C8388048B5B
:1014300048F6FF752C404FF6FF452C400D884FF6BF
:10144000FF7606EA05252C434FF6DF752A408D8985
:1014500006EA05152A434D8806EA05152A43154D67
:10146000A84202D0144DA8421DD14FF67F752A40E4
:10147000CD894FF6FF7606EA05152A434FF6BF756C
:101480002A408D8806EA05152A434FF6FF352B4082
:101490004FF2FF752B400D8A06EA85052B434D8AD6
:1014A00006EA85052B43838004838D688563028467
:1014B00070BD000000000140000401400A46002108
:1014C000018B4FF2FF7319404FF6FF7303EA0223BB
:1014D000194301837047000070B5002400220023E7
:1014E000058C4FF6FF6635400584028C8388848B1B
:1014F0004FF68F752C404FF6FC752C400D882C4311
:101500004FF6FF552A408D894FF6FF7606EA0525EE
:101510002A434D8806EA05252A43154DA84202D0E4
:10152000144DA8421DD14FF2FF752A40CD894FF6C8
:10153000FF7606EA05252A434FF6FF352A408D88B7
:1015400006EA05252A434EF6FF752B404DF6FF753A
:101550002B400D8A06EA05152B434D8A06EA051530
:101560002B43838084838D68C563028470BD000033
:1015700000000140000401400A460021818B4FF623
:10158000F7731940114381837047000070B5002242
:1015900000230024058C4EF6FF7635400584038C2D
:1015A0008488828B48F6FF752A404FF6FF452A4013
:1015B0000D884FF6FF7606EA05252A434DF6FF759E
:1015C0002B408D8906EA05352B434D8806EA053503
:1015D0002B430A4DA84202D0094DA84208D14BF630
:1015E000FF752C400D8A4FF6FF7606EA85152C43D1
:1015F000848082838D680564038470BD000001408F
:10160000000401400A460021818B4FF2FF7319400C
:101610004FF6FF7303EA02231943818370470000EA
:1016200000220288184B98420ED0184B98420BD0DB
:10163000B0F1804F08D0164B984205D0154B984218
:1016400002D0154B984204D14FF68F731A404B8845
:101650001A43124B984207D0114B984204D04FF6D0
:10166000FF431A400B891A4302804B68C3620B8800
:101670000385054B984202D0044B984201D18B7AE6
:10168000038601238382704700000140000401406B
:101690000004004000080040000C00400010004022
:1016A000001400401FB501210220FFF771FB00204C
:1016B000ADF80C00ADF8060042F2107002905A200E
:1016C000ADF8040001A90F48FFF7AAFF0122114657
:1016D0000C48FFF750FE01210A48FFF740FE4FF487
:1016E000A060FFF75DFA1D208DF8000001208DF845
:1016F000030002208DF801008DF802006846FFF714
:1017000013FA1FBD000400400EB501210820FFF7A9
:101710003FFB0020ADF80800ADF80200401E01902C
:101720005A20ADF8000069460648FFF779FF00220D
:1017300001210448FFF71FFE01210248FFF70FFEB9
:101740000EBD0000000C004010B501210148FEF75D
:1017500037FE10BD8860024000B597B001214804F3
:10176000FFF716FB01210820FFF702FB01214805C6
:10177000FFF7FEFA072205215B48FFF751F8072221
:1017800006215948FFF74CF86020159002208DF88B
:1017900058008DF8590000208DF85A0001208DF86E
:1017A0005B0015A95048FEF7F3FF4FF4E1301190AC
:1017B0000020ADF850000C20ADF84E000020ADF830
:1017C0004C00ADF84A00ADF8480011A9474800F0B8
:1017D00025F90121454800F0BCF8C82005904FF0DC
:1017E000006001904020049000200C9003200D9098
:1017F0003F48039000200E9009904FF480600790BE
:1018000000200A903948001D029000200F90089097
:1018100006904FF400300B9001A93648FEF72CFEDD
:10182000002004903448039001A932481838FEF78C
:1018300023FE012280212D4800F097F8012240214B
:101840002A4800F092F8012240F22661274800F071
:10185000BFF8012240F22551244800F0B9F84FF4B6
:10186000A060FFF79DF926208DF8400001208DF83B
:1018700043008DF841008DF8420010A8FFF754F99D
:10188000012210211B48FEF7D9FD4FF4A060FFF79D
:1018900087F911208DF8400001208DF843008DF864
:1018A00041008DF8420010A8FFF73EF901221021F7
:1018B00010481838FEF7C2FD4FF4A060FFF770F92A
:1018C00010208DF8400001208DF843008DF8410074
:1018D0008DF8420010A8FFF727F9012105481838B4
:1018E000FEF76EFD17B000BD000C02400044004042
:1018F00010000020A0600240FC00002010B540F263
:1019000026610B4800F03AF8012804D140F2266124
:10191000074800F00FF840F22551054800F02EF876
:10192000012804D140F22551014800F003F810BD10
:101930000044004010B50022002340F66A14A14282
:1019400000D100BF0A1201249440A3B2DC430480FA
:1019500010BD21B1828942F40052828104E0828963
:101960004DF6FF731A40828170471AB1838A0B4388
:10197000838202E0838A8B438382704770B502467C
:10198000002400230025002040F66A16B14200D151
:1019900000BFC1F3421501F01F03012606FA03F34D
:1019A000012D02D19689334006E0022D02D1168A1C
:1019B000334001E0968A33400C12012606FA04F403
:1019C0001688344013B10CB1012000E0002070BD36
:1019D000F0B50346002400260025002040F66A17D3
:1019E000B94200D100BF1846C1F3421401F01F06EE
:1019F000012707FA06F5012C01D10C3004E0022C76
:101A000001D1103000E014301AB107682F4307608D
:101A100002E00768AF430760F0BD00002DE9FF4713
:101A200005460E460024A14600BFA046B08900B17D
:101A300000BF2C8A24F44054F08804432C82AC89E3
:101A400041F20C608443B0883189084371890843AE
:101A50000443AC81AC8A24F44074B0890443AC8262
:101A60006846FFF7B5F92048854202D01F488542F5
:101A700002D1DDF80C9001E0DDF80890A88900F4AF
:101A8000004040B109EBC90000EB09103168490082
:101A9000B0FBF1F707E009EBC90000EB0910316872
:101AA0008900B0FBF1F76420B7FBF0F004012009D6
:101AB000642101FB1078A88900F4004040B1322075
:101AC00000EBC800B0FBF1F000F00700044308E0B1
:101AD000322000EB08106421B0FBF1F000F00F00A1
:101AE00004432C81BDE8FF87001001400014014031
:101AF000FEF7BEFEFFF730FEFFF724FAFEF700FC0C
:101B0000FFF758F8FFF700FEFFF7CCFDFFF7D2F91B
:101B1000FFF76EFAFEF764FFFEF7C6FE00F002F86C
:101B200000BFFEE7142005490870C8204870022055
:101B300088700320C870C020087170478802002098
:101B40004FF04070E1EE100A704700006C1B000877
:101B500000000020FC000000E8010008681C0008EC
:101B6000FC0000202C080000040200080000000017
:101B70000102030401020304060708091122334489
:101B80000000000000000000000000000000000055
:101B90000000000000000000000000000000000045
:101BA0000000000000000000000000000000000035
:101BB0000000000000000000000000000000000025
:101BC0000000000000000000000000000000000015
:101BD0000000000000000000000000000000000005
:101BE00000000000000000000000000000000000F5
:101BF00000000000000000000000000000000000E5
:101C000000000000000000000000000000000000D4
:101C100000000000000000000000000000000000C4
:101C200000000000000000000000000000000000B4
:101C300000000000000000000000000000000000A4
:101C4000000000000000DC05DC05DC05DC05E80325
:101C50000000000000000000000000000000000084
:081C600000000000000000007C
:040000050800024DA0
:00000001FF
