:020000040800F2
:10000000B00800204D020008550200085702000801
:10001000590200085B0200085D02000800000000B1
:100020000000000000000000000000005F02000867
:100030006102000800000000630200086502000879
:1000400067020008670200086702000867020008EC
:1000500067020008670200086702000867020008DC
:1000600067020008670200086702000867020008CC
:1000700067020008670200086702000867020008BC
:1000800041030008650300086702000867020008D2
:10009000670200086702000867020008610500089F
:1000A000670200086702000867020008670200088C
:1000B00067020008910F0008670200086702000845
:1000C000670200086702000867020008670200086C
:1000D000670200086702000861150008670200084F
:1000E000D1040008670200086702000867020008E0
:1000F000670200086702000867020008670200083C
:10010000670200086702000867020008670200082B
:10011000670200086702000867020008670200081B
:10012000670200086702000867020008670200080B
:1001300067020008670200086702000867020008FB
:1001400067020008670200086702000867020008EB
:1001500067020008670200086702000867020008DB
:1001600067020008670200086702000867020008CB
:10017000670200086702000867020008000000002C
:1001800067020008670200086702000867020008AB
:10019000670200086702000867020008670200089B
:1001A00000000000000000006702000800F002F8F4
:1001B00000F03CF80AA090E8000C82448344AAF1C5
:1001C0000107DA4501D100F031F8AFF2090EBAE8C3
:1001D0000F0013F0010F18BFFB1A43F0010318477B
:1001E000A4150000C4150000103A24BF78C878C1D7
:1001F000FAD8520724BF30C830C144BF04680C602D
:10020000704700000023002400250026103A28BF74
:1002100078C1FBD8520728BF30C148BF0B60704778
:100220001FB501F0A9FA1FBD10B510BD00F031F8DF
:100230001146FFF7F5FF01F08DFA00F04FF803B417
:10024000FFF7F2FF03BC00F053F8000009488047B5
:1002500009480047FEE7FEE7FEE7FEE7FEE7FEE7A8
:10026000FEE7FEE7FEE7FEE704480549054A064BC0
:1002700070470000290F0008AD010008B0020020FF
:10028000B0080020B0040020B00400207047704780
:100290007047754600F028F8AE460500694653469B
:1002A00020F00700854618B020B5FFF7DDFFBDE858
:1002B00020404FF000064FF000074FF000084FF0CD
:1002C000000B21F00701AC46ACE8C009ACE8C0095E
:1002D000ACE8C009ACE8C0098D4670470446AFF3EE
:1002E00000802046FFF7ABFF004870474C0200201B
:1002F00001491820ABBEFEE726000200704700004F
:100300001CB50121082000F0F5FB01208DF8040048
:1003100000208DF806004FF48060009001208DF8D9
:10032000070003208DF805006946044800F030FA04
:100330004FF48061014800F098FA1CBD000C0240A7
:1003400010B50649064800F047F8012805D10349D1
:10035000034800F01BF801F029F810BD00880020C8
:10036000A060024010B50749074800F035F80128A1
:1003700007D10449044800F009F80021024800F0C0
:100380001FF810BD00802020A06002400246094BEB
:100390009A4201D2084801E00648103801F00053A3
:1003A0001BB1064B0B40C36002E0044B0B40836063
:1003B0007047000010640240006002407D0F7D0F16
:1003C00021B1026842F00102026003E0026822F0FB
:1003D000010202607047000070B502460020002450
:1003E0000025124EB24201D2114B01E00F4B103BDF
:1003F000104E0E4036B11E2606EAD124166806EAD3
:10040000040502E0566906F0800501F000560EB1C1
:100410005C6800E01C68084E344004EA010616B12E
:100420000DB1012000E0002070BD0000106402400A
:10043000006002403C0F3C0F7D0F7D0F10B501F0B6
:1004400080034BB122B1436943F08003436103E071
:10045000436923F08003436180290BD02AB10368EC
:1004600001F01E042343036004E0036801F01E044E
:10047000A343036010BD000010B500220268134BB7
:100480001A40CC680B6823434C6923438C6923438F
:10049000CC6923430C6A23434C6A23438C6A23436D
:1004A0004C6B23438C6B23431A430260426922F056
:1004B0000702D1E90B3423431A4342610B694360BD
:1004C0004B6883608B68C36010BD00003F801CF0E8
:1004D00010B54FF4806000F005F9012833D1800297
:1004E00000F0FAF818480079D0B1002016490871D8
:1004F00016480068164908610846008A1549098AA5
:10050000401A154908811548006840F48060134975
:100510000860081D006820F48060091D086012E072
:10052000012009490871094800680A4908610B4817
:10053000006820F4806009490860081D006840F4E4
:100540008060091D086010BDE4000020240C0040FC
:10055000180200202C02002040020020083C01402C
:1005600010B5802000F0BEF8012833D1802000F0C3
:10057000B3F853484078D0B10020514948705148F1
:100580000068514948600846808850498988401A67
:100590004F4948804F48006840F080004D4908604E
:1005A000081D006820F08000091D086012E001208D
:1005B00043494870434800684449486045480068DA
:1005C00020F0800043490860081D006840F080006A
:1005D000091D08604FF4807000F084F8012833D1C1
:1005E000000200F079F836488078D0B10020344914
:1005F0008870344800683449886008460089334967
:100600000989401A324988803248006840F4807075
:1006100030490860081D006820F48070091D0860DA
:1006200012E0012026498870264800682749886022
:100630002848006820F4807026490860081D00687A
:1006400040F48070091D08604FF4007000F04AF813
:10065000012833D1400200F03FF81948C078D0B1EA
:1006600000201749C870174800681749C860084635
:10067000808916498989401A1549C880154800683B
:1006800040F4007013490860081D006820F40070F1
:10069000091D086012E001200949C8700948006876
:1006A0000A49C8600B48006820F4007009490860D6
:1006B000081D006840F40070091D086010BD0000AE
:1006C000E4000020240C0040180200202C0200202E
:1006D00040020020083C01400149086070470000CA
:1006E000143C014001460020034A12680A400AB146
:1006F000012000E000207047143C01400021234904
:100700008279002A3AD00A46126803689A430B4657
:100710001A600A1D126803689A430B1D1A60027959
:1007200011440A6803681A430A60184A08321268BA
:1007300003689A43154B08331A601A1D1268036840
:100740009A43124B0C331A604279102A0ED11A1FA9
:10075000126803681A430D4B08331A601A1D126899
:1007600003681A43094B0C331A600DE007494279BC
:1007700011440A6803681A430A6005E002791144CB
:100780000A6803689A430A6070470000003C014011
:10079000F0B50A4600210023002400BF3DE00125FA
:1007A00005FA01F3156805EA03049C4234D1056893
:1007B0004F000326BE40B543056015794E00B54095
:1007C0000668354305601579012D02D01579022D93
:1007D00016D185684F000326BE40B5438560557924
:1007E0004E00B540866835438560456801268E40D9
:1007F000B5434560456896798E40B6B2354345604D
:10080000C5684F000326BE40B543C560D5794E008C
:10081000B540C6683543C560491C1029BFD3F0BD3B
:10082000F0B5002300244D07ED0E02FA05F3CE10BB
:1008300000F1200555F826504E07F70E0F26BE4052
:10084000B543CF1000F1200646F82750CE1000F136
:10085000200555F8265045EA0304CE1000F1200586
:1008600045F82640F0BD4183704701837047000082
:100870001CB50121042000F03DF90E20009001205C
:100880008DF8040002208DF8050000208DF8060088
:1008900069460448FFF77CFF0E210248FFF7E3FF9B
:1008A0001CBD0000000802407047000070B5002128
:1008B00000230F22C4781CB3174C246804F4E064AE
:1008C000C4F5E064C4F30721C1F10404E3B20A41B2
:1008D00044789C40E1B28478144021430C07210EF7
:1008E0000E4C05786155047804F01F050124AC40D6
:1008F00005786D11AD0005F1E025C5F8004109E06E
:10090000047804F01F050124AC40054D06787611EB
:1009100045F8264070BD00000CED00E000E400E06A
:1009200080E100E002490143024A11607047000083
:100930000000FA050CED00E000B58BB0012108467F
:1009400000F0E8F80121084600F0D4F802208DF804
:10095000280000208DF82A000F20099001208DF832
:100960002B0003208DF8290009A95E48FFF710FF2E
:10097000012200215B48FFF753FF0122114659482D
:10098000FFF74EFF012202215648FFF749FF0122DF
:1009900003215448FFF744FF0020ADF82000ADF8D4
:1009A0001A0041F2883007902D20ADF8180006A9F2
:1009B000800700F067FC6020ADF804000020ADF86F
:1009C00010000120ADF8060047484088039001A9B7
:1009D0004FF0804000F00AFB0821C80600F044FBFD
:1009E0000120ADF8060040488088039001A94FF02F
:1009F000804000F043FB0821C80600F091FB012075
:100A0000ADF806003848C088039001A94FF0804037
:100A100000F094FB0821C80600F0E0FB0120ADF8CF
:100A2000060031480089039001A94FF0804000F092
:100A3000DFFB0821C80600F017FC0121880700F041
:100A4000B1FA0121880700F0BCFA0121042000F06E
:100A500061F80121082000F04DF802208DF82800EF
:100A600000208DF82A004FF48050099001208DF865
:100A70002B0003208DF8290009A91C48FFF788FEE8
:100A800002220C211948FFF7CBFE0020ADF8200010
:100A9000ADF81A0041F2883007905A20ADF81800DE
:100AA00006A9134800F0EEFB6020ADF8040000201A
:100AB000ADF810000120ADF806000B484089039006
:100AC00001A90B4800F092FA0821094800F0CCFA7D
:100AD0000121074800F066FA0121054800F071FA8B
:100AE0000BB000BD00000240D8000020000C024006
:100AF0000008004029B1064A12680243044B1A60FC
:100B000004E0034A12688243014B1A6070470000F8
:100B10003038024029B1064A12680243044B1A6079
:100B200004E0034A12688243014B1A6070470000D8
:100B30004038024029B1064A12680243044B1A6049
:100B400004E0034A12688243014B1A6070470000B8
:100B500044380240F0B5002100220024022500267E
:100B60000223324F3F6807F00C0121B1042905D060
:100B7000082937D105E02E4F076036E02C4F07607B
:100B800033E02A4F3F1F3F68C7F38056274F3F1F70
:100B90003F6807F03F036EB1254FB7FBF3F7DFF86F
:100BA0008CC0ACF1040CDCF800C0CCF3881C07FB53
:100BB0000CF40CE01E4FB7FBF3F7DFF870C0ACF19C
:100BC000040CDCF800C0CCF3881C07FB0CF4174FB6
:100BD0003F1F3F68C7F301477F1C7D00B4FBF5F75B
:100BE000076002E0124F076000BF00BF0F4F3F6871
:100BF00007F0F00109090F4F7A5C0768D74047609A
:100C00000A4F3F6807F4E051890A0A4F7A5C476847
:100C1000D7408760054F3F6807F46041490B054F97
:100C20007A5C4768D740C760F0BD000008380240D2
:100C30000024F4000000002000B585B00121102040
:100C4000FFF758FF01218803FFF774FF00208DF89C
:100C500010004FF4F060039000208DF8130003A9FA
:100C60001848FFF795FD0721042000F0ADF8082192
:100C7000042000F0A9F80921042000F0A5F80A21B9
:100C8000042000F0A1F84FF4F060019001208DF8ED
:100C90000A0000208DF8080008208DF8090001A83E
:100CA000FFF72CFD17208DF8000001208DF80300C0
:100CB00000208DF801008DF802006846FFF7F6FD70
:100CC00005B000BD0010024000B587B001218803C7
:100CD000FFF720FF01210220FFF70CFF02208DF813
:100CE000180000208DF81A004FF460400590012094
:100CF0008DF81B0003208DF8190005A91B48FFF78C
:100D000047FD05220D211948FFF78AFD05220E2116
:100D10001648FFF785FD05220F211448FFF780FDD7
:100D20002020ADF80C000120ADF808000220ADF83D
:100D300006000720ADF810000020ADF80400ADF863
:100D40000000ADF80E004FF48270ADF802004FF4D1
:100D50000070ADF80A006946054800F017F8012157
:100D6000034800F007F807B000BD0000000402408F
:100D70000038004021B1028842F04002028004E0C5
:100D800002884FF6BF731A400280704710B50022E8
:100D9000028802F441520B884C8823438C882343F9
:100DA000CC8823430C8923434C8923438C892343D8
:100DB000CC8923431A430280838B4FF2FF74234074
:100DC00083830B8A038210BD30B500228B071C0F72
:100DD0000F2303FA04F20B4B8C1053F82430934387
:100DE000084C8D1044F8253023468C1053F82430DD
:100DF0008C07240F00FA04F42343024C8D1044F8AE
:100E0000253030BD083801400CB50020019000901D
:100E10004148006840F480303F49086000BF3E48C8
:100E2000006800F4003000900198401C0190009888
:100E300018B90198B0F5A04FF1D13748006800F417
:100E4000003010B10120009001E0002000900098D7
:100E5000012860D130484030006840F080502E4971
:100E6000403108602D48006840F440402B4908603C
:100E70002948083000682849083108600846006899
:100E800040F4004008600846006840F4A050086044
:100E90002348091F0860081F006840F08070091F80
:100EA000086000BF1C48006800F000700028F9D0FE
:100EB0001A48006840F480301849086000BF17489D
:100EC000406800F480300028F9D01448006840F4ED
:100ED00000301249086000BF1048406800F400303C
:100EE0000028F9D040F205700E4908600A48083021
:100EF000006820F0030008490831086008460068CF
:100F000040F00200086000BF03480830006800F0AD
:100F10000C000828F8D10CBD0038024000700040D9
:100F2000105A4007003C024010B51548006840F4D4
:100F30007000134908601348006840F0010011492F
:100F4000086000200F49083108600E4800680E490B
:100F500008400C4908600D48091D0860081F00681A
:100F600020F48020091F0860002006490C31086029
:100F7000FFF74AFF4FF0006001498039086010BD5B
:100F800088ED00E000380240FFFFF6FE103000243C
:100F900010B50121024800F011F8FFF785FC10BDE3
:100FA0000004004021B1028842F08002028004E087
:100FB00002884FF67F731A4002807047CA4302824C
:100FC000704721B1028842F00102028004E00288E9
:100FD0004FF6FE731A40028070471AB183890B43A3
:100FE000838102E083898B438381704770B500243D
:100FF00000220023058C4FF6FE7635400584028CD6
:101000008388048B4FF68F752C40B51E2C400D88BD
:101010002C43751E2A408D892A434D882A43104D42
:10102000A84202D00F4DA84213D14FF6F7752A40BF
:10103000CD892A434FF6FB752A408D882A434FF607
:10104000FF652B404FF6FF552B400D8A2B434D8AF1
:101050002B43838004838D684563028470BD000048
:1010600000000140000401400A460021018B4FF6B8
:10107000F7731940114301837047000070B50024D5
:1010800000220023058C4FF6EF7635400584028C54
:101090008388048B48F6FF752C404FF6FF452C40A3
:1010A0000D884FF6FF7606EA05252C434FF6DF75CF
:1010B0002A408D8906EA05152A434D8806EA05155A
:1010C0002A43154DA84202D0144DA8421DD14FF617
:1010D0007F752A40CD894FF6FF7606EA05152A432B
:1010E0004FF6BF752A408D8806EA05152A434FF64C
:1010F000FF352B404FF2FF752B400D8A06EA850520
:101100002B434D8A06EA85052B43838004838D6833
:101110008563028470BD00000000014000040140AE
:101120000A460021018B4FF2FF7319404FF6FF73FF
:1011300003EA0223194301837047000070B50024BD
:1011400000220023058C4FF6FF6635400584028C93
:101150008388848B4FF68F752C404FF6FC752C409E
:101160000D882C434FF6FF552A408D894FF6FF76A8
:1011700006EA05252A434D8806EA05252A43154D2A
:10118000A84202D0144DA8421DD14FF2FF752A404B
:10119000CD894FF6FF7606EA05252A434FF6FF353F
:1011A0002A408D8806EA05252A434EF6FF752B4016
:1011B0004DF6FF752B400D8A06EA05152B434D8A27
:1011C00006EA05152B43838084838D68C5630284FA
:1011D00070BD000000000140000401400A460021EB
:1011E000818B4FF6F77319401143818370470000DC
:1011F00070B5002200230024058C4EF6FF763540A2
:101200000584038C8488828B48F6FF752A404FF64C
:10121000FF452A400D884FF6FF7606EA05252A434A
:101220004DF6FF752B408D8906EA05352B434D8819
:1012300006EA05352B430A4DA84202D0094DA842C3
:1012400008D14BF6FF752C400D8A4FF6FF7606EA63
:1012500085152C43848082838D680564038470BD6A
:1012600000000140000401400A460021818B4FF23A
:10127000FF7319404FF6FF7303EA0223194381837A
:101280007047000000220288184B98420ED0184B7D
:1012900098420BD0B0F1804F08D0164B984205D041
:1012A000154B984202D0154B984204D14FF68F73DC
:1012B0001A404B881A43124B984207D0114B984260
:1012C00004D04FF6FF431A400B891A4302804B6843
:1012D000C3620B880385054B984202D0044B9842A9
:1012E00001D18B7A0386012383827047000001407D
:1012F000000401400004004000080040000C0040D1
:1013000000100040001400401FB501210220FFF72B
:1013100001FC0020ADF80C00ADF8060042F21070A0
:1013200002905A20ADF8040001A90F48FFF7AAFF68
:10133000012211460C48FFF750FE01210A48FFF731
:1013400040FE4FF4A060FFF7EDFA1D208DF800007D
:1013500001208DF8030002208DF801008DF80200B5
:101360006846FFF7A3FA1FBD000400400EB5012137
:101370000820FFF7CFFB0020ADF80800ADF8020011
:10138000401E01905A20ADF8000069460648FFF75C
:1013900079FF002201210448FFF71FFE01210248C6
:1013A000FFF70FFE0EBD0000000C004010B501213C
:1013B0000148FFF705F810BD8860024000B597B0FE
:1013C00001214804FFF7A6FB01210820FFF792FB4B
:1013D00001214805FFF78EFB072205215B48FFF737
:1013E0001FFA072206215948FFF71AFA60201590C4
:1013F00002208DF858008DF8590000208DF85A0011
:1014000001208DF85B0015A95048FFF7C1F94FF492
:10141000E13011900020ADF850000C20ADF84E00E6
:101420000020ADF84C00ADF84A00ADF8480011A915
:10143000474800F025F90121454800F0BCF8C820D4
:1014400005904FF0006001904020049000200C9027
:1014500003200D903F48039000200E9009904FF418
:101460008060079000200A903948001D02900020FB
:101470000F90089006904FF400300B9001A9364869
:10148000FEF7FAFF002004903448039001A9324887
:101490001838FEF7F1FF012280212D4800F097F85F
:1014A000012240212A4800F092F8012240F22661F0
:1014B000274800F0BFF8012240F22551244800F0EF
:1014C000B9F84FF4A060FFF72DFA26208DF8400000
:1014D00001208DF843008DF841008DF8420010A8DE
:1014E000FFF7E4F9012210211B48FEF7A7FF4FF494
:1014F000A060FFF717FA11208DF8400001208DF849
:1015000043008DF841008DF8420010A8FFF7CEF996
:101510000122102110481838FEF790FF4FF4A06008
:10152000FFF700FA10208DF8400001208DF84300ED
:101530008DF841008DF8420010A8FFF7B7F901219E
:1015400005481838FEF73CFF17B000BD000C0240FC
:101550000044004010000020A0600240EC00002089
:1015600010B540F226610B4800F03AF8012804D18A
:1015700040F22661074800F00FF840F22551054877
:1015800000F02EF8012804D140F22551014800F066
:1015900003F810BD0044004010B50022002340F6BF
:1015A0006A14A14200D100BF0A1201249440A3B2E0
:1015B000DC43048010BD21B1828942F40052828153
:1015C00004E082894DF6FF731A40828170471AB198
:1015D000838A0B43838202E0838A8B438382704732
:1015E00070B50246002400230025002040F66A164C
:1015F000B14200D100BFC1F3421501F01F03012623
:1016000006FA03F3012D02D19689334006E0022D3C
:1016100002D1168A334001E0968A33400C1201262B
:1016200006FA04F41688344013B10CB1012000E02E
:10163000002070BDF0B503460024002600250020E0
:1016400040F66A17B94200D100BF1846C1F34214F0
:1016500001F01F06012707FA06F5012C01D10C3015
:1016600004E0022C01D1103000E014301AB10768F8
:101670002F43076002E00768AF430760F0BD00003A
:101680002DE9FF4705460E460024A14600BFA046AF
:10169000B08900B100BF2C8A24F44054F088044380
:1016A0002C82AC8941F20C608443B08831890843B4
:1016B000718908430443AC81AC8A24F44074B08936
:1016C0000443AC826846FFF745FA2048854202D0C1
:1016D0001F48854202D1DDF80C9001E0DDF808904A
:1016E000A88900F4004040B109EBC90000EB0910E3
:1016F00031684900B0FBF1F707E009EBC90000EBE6
:10170000091031688900B0FBF1F76420B7FBF0F0F5
:1017100004012009642101FB1078A88900F400402D
:1017200040B1322000EBC800B0FBF1F000F0070040
:10173000044308E0322000EB08106421B0FBF1F014
:1017400000F00F0004432C81BDE8FF87001001402A
:1017500000140140FFF78CF8FFF730FEFFF7B4FAF2
:10176000FEF7CEFDFFF7E8F8FFF700FEFFF764FA9B
:10177000FFF7CAFD00BFFEE74FF04070E1EE100A30
:1017800070470000A417000800000020EC000000D3
:10179000E801000890180008EC000020C4070000D1
:1017A0000402000800000000010203040102030417
:1017B0000607080911223344000000000000000061
:1017C0000000000000000000000000000000000019
:1017D0000000000000000000000000000000000009
:1017E00000000000000000000000000000000000F9
:1017F00000000000000000000000000000000000E9
:1018000000000000000000000000000000000000D8
:1018100000000000000000000000000000000000C8
:1018200000000000000000000000000000000000B8
:1018300000000000000000000000000000000000A8
:101840000000000000000000000000000000000098
:101850000000000000000000000000000000000088
:101860000000000000000000000000000000000078
:101870000000000000000000000000000000DC0587
:10188000DC05DC05DC05E8030000000000000000CA
:040000050800024DA0
:00000001FF
